{
  "contractName": "Splitter",
  "abi": [
    {
      "constant": true,
      "inputs": [],
      "name": "CarolAddress",
      "outputs": [
        {
          "name": "",
          "type": "address"
        }
      ],
      "payable": false,
      "stateMutability": "view",
      "type": "function"
    },
    {
      "constant": true,
      "inputs": [],
      "name": "BobAddress",
      "outputs": [
        {
          "name": "",
          "type": "address"
        }
      ],
      "payable": false,
      "stateMutability": "view",
      "type": "function"
    },
    {
      "constant": true,
      "inputs": [],
      "name": "AliceAddress",
      "outputs": [
        {
          "name": "",
          "type": "address"
        }
      ],
      "payable": false,
      "stateMutability": "view",
      "type": "function"
    },
    {
      "inputs": [
        {
          "name": "_aliceAddress",
          "type": "address"
        },
        {
          "name": "_bobAddress",
          "type": "address"
        },
        {
          "name": "_carolAddress",
          "type": "address"
        }
      ],
      "payable": false,
      "stateMutability": "nonpayable",
      "type": "constructor"
    },
    {
      "payable": true,
      "stateMutability": "payable",
      "type": "fallback"
    },
    {
      "anonymous": false,
      "inputs": [
        {
          "indexed": false,
          "name": "_splitterAddress",
          "type": "address"
        }
      ],
      "name": "ContractDeployed",
      "type": "event"
    },
    {
      "anonymous": false,
      "inputs": [
        {
          "indexed": false,
          "name": "_totalSent",
          "type": "uint256"
        },
        {
          "indexed": false,
          "name": "_splitAmount",
          "type": "uint256"
        }
      ],
      "name": "FundsSplit",
      "type": "event"
    },
    {
      "constant": true,
      "inputs": [],
      "name": "getSplitterBalance",
      "outputs": [
        {
          "name": "",
          "type": "uint256"
        }
      ],
      "payable": false,
      "stateMutability": "view",
      "type": "function"
    },
    {
      "constant": true,
      "inputs": [],
      "name": "getParticipantBalance",
      "outputs": [
        {
          "name": "",
          "type": "uint256"
        },
        {
          "name": "",
          "type": "uint256"
        },
        {
          "name": "",
          "type": "uint256"
        }
      ],
      "payable": false,
      "stateMutability": "view",
      "type": "function"
    },
    {
      "constant": true,
      "inputs": [
        {
          "name": "_user",
          "type": "address"
        }
      ],
      "name": "getIndividalBalance",
      "outputs": [
        {
          "name": "",
          "type": "uint256"
        }
      ],
      "payable": false,
      "stateMutability": "view",
      "type": "function"
    },
    {
      "constant": false,
      "inputs": [
        {
          "name": "_amount",
          "type": "uint256"
        }
      ],
      "name": "splitEther",
      "outputs": [],
      "payable": true,
      "stateMutability": "payable",
      "type": "function"
    },
    {
      "constant": false,
      "inputs": [],
      "name": "recieveFunds",
      "outputs": [],
      "payable": true,
      "stateMutability": "payable",
      "type": "function"
    }
  ],
  "bytecode": "0x60806040526000600360146101000a81548160ff02191690831515021790555034801561002b57600080fd5b506040516060806109238339810180604052606081101561004b57600080fd5b81019080805190602001909291908051906020019092919080519060200190929190505050336000806101000a81548173ffffffffffffffffffffffffffffffffffffffff021916908373ffffffffffffffffffffffffffffffffffffffff16021790555082600160006101000a81548173ffffffffffffffffffffffffffffffffffffffff021916908373ffffffffffffffffffffffffffffffffffffffff16021790555081600260006101000a81548173ffffffffffffffffffffffffffffffffffffffff021916908373ffffffffffffffffffffffffffffffffffffffff16021790555080600360006101000a81548173ffffffffffffffffffffffffffffffffffffffff021916908373ffffffffffffffffffffffffffffffffffffffff1602179055507f8ffcdc15a283d706d38281f500270d8b5a656918f555de0913d7455e3e6bc1bf30604051808273ffffffffffffffffffffffffffffffffffffffff1673ffffffffffffffffffffffffffffffffffffffff16815260200191505060405180910390a150505061073b806101e86000396000f3fe60806040526004361061008e576000357c0100000000000000000000000000000000000000000000000000000000900463ffffffff16806321c39fb9146100905780632a6b5b2c146100bb5780635c73b287146101125780639098c6aa14610177578063acae5868146101ce578063b7124eb514610225578063baba481114610253578063f4575de21461025d575b005b34801561009c57600080fd5b506100a5610296565b6040518082815260200191505060405180910390f35b3480156100c757600080fd5b506100d06102b5565b604051808273ffffffffffffffffffffffffffffffffffffffff1673ffffffffffffffffffffffffffffffffffffffff16815260200191505060405180910390f35b34801561011e57600080fd5b506101616004803603602081101561013557600080fd5b81019080803573ffffffffffffffffffffffffffffffffffffffff1690602001909291905050506102db565b6040518082815260200191505060405180910390f35b34801561018357600080fd5b5061018c6102fc565b604051808273ffffffffffffffffffffffffffffffffffffffff1673ffffffffffffffffffffffffffffffffffffffff16815260200191505060405180910390f35b3480156101da57600080fd5b506101e3610322565b604051808273ffffffffffffffffffffffffffffffffffffffff1673ffffffffffffffffffffffffffffffffffffffff16815260200191505060405180910390f35b6102516004803603602081101561023b57600080fd5b8101908080359060200190929190505050610348565b005b61025b61064f565b005b34801561026957600080fd5b50610272610651565b60405180848152602001838152602001828152602001935050505060405180910390f35b60003073ffffffffffffffffffffffffffffffffffffffff1631905090565b600360009054906101000a900473ffffffffffffffffffffffffffffffffffffffff1681565b60008173ffffffffffffffffffffffffffffffffffffffff16319050919050565b600260009054906101000a900473ffffffffffffffffffffffffffffffffffffffff1681565b600160009054906101000a900473ffffffffffffffffffffffffffffffffffffffff1681565b348114151561035657600080fd5b600360149054906101000a900460ff1615151561037257600080fd5b600160009054906101000a900473ffffffffffffffffffffffffffffffffffffffff1673ffffffffffffffffffffffffffffffffffffffff163373ffffffffffffffffffffffffffffffffffffffff16141515610437576040517f08c379a00000000000000000000000000000000000000000000000000000000081526004018080602001828103825260128152602001807f596f7520617265206e6f7420416c69636521000000000000000000000000000081525060200191505060405180910390fd5b600060023481151561044557fe5b061415156104e1576040517f08c379a000000000000000000000000000000000000000000000000000000000815260040180806020018281038252602c8152602001807f5468697320636f6e7472616374207265717569726573206576656e20616d6f7581526020017f6e7473206f66206574686572000000000000000000000000000000000000000081525060400191505060405180910390fd5b6001600360146101000a81548160ff021916908315150217905550600260009054906101000a900473ffffffffffffffffffffffffffffffffffffffff1673ffffffffffffffffffffffffffffffffffffffff166108fc60023481151561054457fe5b049081150290604051600060405180830381858888f19350505050158015610570573d6000803e3d6000fd5b50600360009054906101000a900473ffffffffffffffffffffffffffffffffffffffff1673ffffffffffffffffffffffffffffffffffffffff166108fc6002348115156105b957fe5b049081150290604051600060405180830381858888f193505050501580156105e5573d6000803e3d6000fd5b506000600360146101000a81548160ff0219169083151502179055507f72fcedce77a50a45fa697722308a9b8910b9e87d199ccc9f52320ad13b5bf8a13460023481151561062f57fe5b04604051808381526020018281526020019250505060405180910390a150565b565b6000806000600160009054906101000a900473ffffffffffffffffffffffffffffffffffffffff1673ffffffffffffffffffffffffffffffffffffffff1631600260009054906101000a900473ffffffffffffffffffffffffffffffffffffffff1673ffffffffffffffffffffffffffffffffffffffff1631600360009054906101000a900473ffffffffffffffffffffffffffffffffffffffff1673ffffffffffffffffffffffffffffffffffffffff163192509250925090919256fea165627a7a72305820bc52c1528809255c39a1d99ca952cbf978b38529254c2caf8ae61d5a33db83150029",
  "source": "pragma solidity >=0.4.22 <0.9.0;\n\ncontract Splitter {\n    \n    \n    \n    // 1)  there are 3 people: Alice, Bob and Carol.\n    // 2)  we can see the balance of the Splitter contract on the Web page.\n    // 3)  whenever Alice sends ether to the contract for it to be split, half of it goes to Bob and the other half to Carol.\n    // 4)  we can see the balances of Alice, Bob and Carol on the Web page.\n    // 5)  Alice can use the Web page to split her ether.\n    \n    //Owner represents the original deployer of the contract\n    address owner;\n    address public AliceAddress;\n    address payable public BobAddress;\n    address payable public CarolAddress;\n    bool reEntrancyMutex = false;\n    \n    \n    //event declarations\n    event ContractDeployed(address _splitterAddress);\n    event FundsSplit(uint _totalSent, uint _splitAmount);\n    \n    //This constructor will set their addresses upon contract creation only\n    constructor(address payable _aliceAddress, address payable _bobAddress, address payable _carolAddress) public{\n        owner = msg.sender;\n        AliceAddress = _aliceAddress;\n        BobAddress = _bobAddress;\n        CarolAddress = _carolAddress;\n        emit ContractDeployed(address(this));\n    }\n    \n    \n    //Function to return the balance of the splitter contract\n    function getSplitterBalance() public view returns(uint) {\n        return address(this).balance;\n    }\n    \n    //Function to return balance of Alice, Bob, and Carol on the Web page\n    //This assumes the middleware would know the order of the uints returned here [Alice, Bob, Carol]\n    function getParticipantBalance() public view returns(uint, uint, uint) {\n        return ( address(AliceAddress).balance, address(BobAddress).balance, address(CarolAddress).balance);\n    }\n\n    function getIndividalBalance(address _user) public view returns(uint) {\n        return address(_user).balance;\n    }\n    \n    //Only Alice is allowed to split her ether\n    //Below is the function to split ether from alice to carol and bob\n    function splitEther(uint _amount) public payable {\n        require(_amount == msg.value);\n        require(!reEntrancyMutex);\n        require(msg.sender == AliceAddress, \"You are not Alice!\");\n        require(msg.value % 2 == 0, \"This contract requires even amounts of ether\");\n        //The reEntrancyMutex is probably overkill since using .transfer() sends limited gas, but i included just to be safe\n        reEntrancyMutex = true;\n        BobAddress.transfer(msg.value / 2);\n        CarolAddress.transfer(msg.value / 2);\n        reEntrancyMutex = false;\n        emit FundsSplit(msg.value, msg.value/2);\n    }\n    \n    function recieveFunds() public payable {}\n    \n    function () external payable {}\n}\n",
  "sourcePath": "/home/vagrant/DAPPS/my_project/contracts/Splitter.sol",
  "compiler": {
    "name": "solc",
    "version": "0.5.0+commit.1d4f565a.Emscripten.clang"
  },
  "schemaVersion": "3.0.3",
  "updatedAt": "2021-03-04T02:59:00.349Z",
  "devdoc": {
    "methods": {}
  },
  "userdoc": {
    "methods": {}
  }
}