{
  "contractName": "Splitter",
  "abi": [
    {
      "constant": true,
      "inputs": [
        {
          "name": "",
          "type": "address"
        }
      ],
      "name": "balances",
      "outputs": [
        {
          "name": "",
          "type": "uint256"
        }
      ],
      "payable": false,
      "stateMutability": "view",
      "type": "function"
    },
    {
      "constant": true,
      "inputs": [],
      "name": "owner",
      "outputs": [
        {
          "name": "",
          "type": "address"
        }
      ],
      "payable": false,
      "stateMutability": "view",
      "type": "function"
    },
    {
      "inputs": [],
      "payable": false,
      "stateMutability": "nonpayable",
      "type": "constructor"
    },
    {
      "anonymous": false,
      "inputs": [
        {
          "indexed": false,
          "name": "_splitterAddress",
          "type": "address"
        }
      ],
      "name": "ContractDeployed",
      "type": "event"
    },
    {
      "anonymous": false,
      "inputs": [
        {
          "indexed": false,
          "name": "_aliceAddress",
          "type": "address"
        },
        {
          "indexed": false,
          "name": "_bobAddress",
          "type": "address"
        },
        {
          "indexed": false,
          "name": "_carolAddress",
          "type": "address"
        },
        {
          "indexed": false,
          "name": "_totalSent",
          "type": "uint256"
        },
        {
          "indexed": false,
          "name": "_amountSent",
          "type": "uint256"
        }
      ],
      "name": "FundsSplit",
      "type": "event"
    },
    {
      "anonymous": false,
      "inputs": [
        {
          "indexed": false,
          "name": "_amountWithdrawn",
          "type": "uint256"
        },
        {
          "indexed": false,
          "name": "_reciever",
          "type": "address"
        }
      ],
      "name": "FundsWithdrawn",
      "type": "event"
    },
    {
      "constant": false,
      "inputs": [
        {
          "name": "_bobAddress",
          "type": "address"
        },
        {
          "name": "_carolAddress",
          "type": "address"
        }
      ],
      "name": "splitEther",
      "outputs": [],
      "payable": true,
      "stateMutability": "payable",
      "type": "function"
    },
    {
      "constant": false,
      "inputs": [
        {
          "name": "amount",
          "type": "uint256"
        }
      ],
      "name": "withdrawEther",
      "outputs": [],
      "payable": false,
      "stateMutability": "nonpayable",
      "type": "function"
    }
  ],
  "bytecode": "0x608060405234801561001057600080fd5b50336000806101000a81548173ffffffffffffffffffffffffffffffffffffffff021916908373ffffffffffffffffffffffffffffffffffffffff1602179055507f8ffcdc15a283d706d38281f500270d8b5a656918f555de0913d7455e3e6bc1bf30604051808273ffffffffffffffffffffffffffffffffffffffff1673ffffffffffffffffffffffffffffffffffffffff16815260200191505060405180910390a1610887806100c36000396000f3fe608060405260043610610062576000357c0100000000000000000000000000000000000000000000000000000000900463ffffffff16806327e235e3146100675780633bed33ce146100cc57806369b08d7d146101075780638da5cb5b1461016b575b600080fd5b34801561007357600080fd5b506100b66004803603602081101561008a57600080fd5b81019080803573ffffffffffffffffffffffffffffffffffffffff1690602001909291905050506101c2565b6040518082815260200191505060405180910390f35b3480156100d857600080fd5b50610105600480360360208110156100ef57600080fd5b81019080803590602001909291905050506101da565b005b6101696004803603604081101561011d57600080fd5b81019080803573ffffffffffffffffffffffffffffffffffffffff169060200190929190803573ffffffffffffffffffffffffffffffffffffffff169060200190929190505050610378565b005b34801561017757600080fd5b50610180610801565b604051808273ffffffffffffffffffffffffffffffffffffffff1673ffffffffffffffffffffffffffffffffffffffff16815260200191505060405180910390f35b60016020528060005260406000206000915090505481565b6000600160003373ffffffffffffffffffffffffffffffffffffffff1673ffffffffffffffffffffffffffffffffffffffff16815260200190815260200160002054905080821115151561022d57600080fd5b61027f82600160003373ffffffffffffffffffffffffffffffffffffffff1673ffffffffffffffffffffffffffffffffffffffff1681526020019081526020016000205461082690919063ffffffff16565b600160003373ffffffffffffffffffffffffffffffffffffffff1673ffffffffffffffffffffffffffffffffffffffff168152602001908152602001600020819055503373ffffffffffffffffffffffffffffffffffffffff166108fc839081150290604051600060405180830381858888f19350505050158015610308573d6000803e3d6000fd5b507f6141b54b56b8a52a8c6f5cd2a857f6117b18ffbf4d46bd3106f300a839cbf5ea8233604051808381526020018273ffffffffffffffffffffffffffffffffffffffff1673ffffffffffffffffffffffffffffffffffffffff1681526020019250505060405180910390a15050565b600073ffffffffffffffffffffffffffffffffffffffff168273ffffffffffffffffffffffffffffffffffffffff161415151561041d576040517f08c379a00000000000000000000000000000000000000000000000000000000081526004018080602001828103825260208152602001807f4572726f722c20746865207a65726f206164647265737320776173207573656481525060200191505060405180910390fd5b600073ffffffffffffffffffffffffffffffffffffffff168173ffffffffffffffffffffffffffffffffffffffff16141515156104c2576040517f08c379a00000000000000000000000000000000000000000000000000000000081526004018080602001828103825260208152602001807f4572726f722c20746865207a65726f206164647265737320776173207573656481525060200191505060405180910390fd5b600080905060006002348115156104d557fe5b061415156105cf576104f160013461082690919063ffffffff16565b905061056660018060008060009054906101000a900473ffffffffffffffffffffffffffffffffffffffff1673ffffffffffffffffffffffffffffffffffffffff1673ffffffffffffffffffffffffffffffffffffffff1681526020019081526020016000205461083f90919063ffffffff16565b600160008060009054906101000a900473ffffffffffffffffffffffffffffffffffffffff1673ffffffffffffffffffffffffffffffffffffffff1673ffffffffffffffffffffffffffffffffffffffff168152602001908152602001600020819055506105d3565b3490505b6106316002828115156105e257fe5b04600160008673ffffffffffffffffffffffffffffffffffffffff1673ffffffffffffffffffffffffffffffffffffffff1681526020019081526020016000205461083f90919063ffffffff16565b600160008573ffffffffffffffffffffffffffffffffffffffff1673ffffffffffffffffffffffffffffffffffffffff168152602001908152602001600020819055506106d260028281151561068357fe5b04600160008573ffffffffffffffffffffffffffffffffffffffff1673ffffffffffffffffffffffffffffffffffffffff1681526020019081526020016000205461083f90919063ffffffff16565b600160008473ffffffffffffffffffffffffffffffffffffffff1673ffffffffffffffffffffffffffffffffffffffff168152602001908152602001600020819055507f142a131a7333a066e68d16eed9c86f07589af5c386b987c86d687627896823e43384848460028681151561074657fe5b04604051808673ffffffffffffffffffffffffffffffffffffffff1673ffffffffffffffffffffffffffffffffffffffff1681526020018573ffffffffffffffffffffffffffffffffffffffff1673ffffffffffffffffffffffffffffffffffffffff1681526020018473ffffffffffffffffffffffffffffffffffffffff1673ffffffffffffffffffffffffffffffffffffffff1681526020018381526020018281526020019550505050505060405180910390a1505050565b6000809054906101000a900473ffffffffffffffffffffffffffffffffffffffff1681565b600082821115151561083457fe5b818303905092915050565b6000818301905082811015151561085257fe5b8090509291505056fea165627a7a72305820c2a0f318469a351069e3b82a87d7c21535fad769e3f1e7a60731f1d42925469a0029",
  "source": "pragma solidity >=0.4.22 <0.9.0;\n\nimport './SafeMath.sol';\n\n//Updated\ncontract Splitter {\n    \n    // 1)  there are 3 people: Alice, Bob and Carol.\n    // 2)  we can see the balance of the Splitter contract on the Web page.\n    // 3)  whenever Alice sends ether to the contract for it to be split, half of it goes to Bob and the other half to Carol.\n    // 4)  we can see the balances of Alice, Bob and Carol on the Web page.\n    // 5)  Alice can use the Web page to split her ether.\n    \n    //Owner represents the original deployer of the contract\n    address public owner;\n\n    //mapping declaration\n    mapping (address => uint) public balances;\n    \n    //SafeMath\n    using SafeMath for uint;\n    \n    \n    //event declarations\n    event ContractDeployed(address _splitterAddress);\n    event FundsSplit(address _aliceAddress, address _bobAddress, address _carolAddress, uint _totalSent, uint _amountSent);\n    event FundsWithdrawn(uint _amountWithdrawn, address _reciever);\n    \n    //This constructor will set their addresses upon contract creation only\n    constructor() public {\n        owner = msg.sender;\n        emit ContractDeployed(address(this));\n    }\n    \n    //Only Alice is allowed to split her ether\n    //Below is the function to split ether from alice to carol and bob\n    function splitEther(address _bobAddress, address _carolAddress) public payable {\n\n        \n        require(_bobAddress != address(0), \"Error, the zero address was used\");\n        require(_carolAddress != address(0), \"Error, the zero address was used\");\n\n        uint256 amountToSplit = 0;\n        \n        //If an odd amount is entered, the owner will get the extra wei and participants will recieve an even amount\n        if (msg.value % 2 != 0) {\n            amountToSplit = msg.value.sub(1);\n            balances[owner] = balances[owner].add(1);\n        } else {\n            amountToSplit = msg.value;\n        }\n\n        balances[_bobAddress] =  balances[_bobAddress].add(amountToSplit / 2);\n        balances[_carolAddress] = balances[_carolAddress].add(amountToSplit / 2);\n\n        emit FundsSplit(msg.sender, _bobAddress, _carolAddress, amountToSplit, amountToSplit/2);\n    }\n    \n    function withdrawEther(uint amount) public {\n        uint balance = balances[msg.sender];\n        require(amount <= balance);\n        balances[msg.sender] = balances[msg.sender].sub(amount);\n        msg.sender.transfer(amount);\n        emit FundsWithdrawn(amount, msg.sender);\n    }\n    \n}\n",
  "sourcePath": "/home/vagrant/DAPPS/my_project/contracts/Splitter.sol",
  "compiler": {
    "name": "solc",
    "version": "0.5.0+commit.1d4f565a.Emscripten.clang"
  },
  "schemaVersion": "3.0.3",
  "updatedAt": "2021-04-02T06:41:51.482Z",
  "devdoc": {
    "methods": {}
  },
  "userdoc": {
    "methods": {}
  }
}