{
  "contractName": "Splitter",
  "abi": [
    {
      "constant": true,
      "inputs": [
        {
          "name": "",
          "type": "address"
        }
      ],
      "name": "balances",
      "outputs": [
        {
          "name": "",
          "type": "uint256"
        }
      ],
      "payable": false,
      "stateMutability": "view",
      "type": "function",
      "signature": "0x27e235e3"
    },
    {
      "constant": true,
      "inputs": [],
      "name": "owner",
      "outputs": [
        {
          "name": "",
          "type": "address"
        }
      ],
      "payable": false,
      "stateMutability": "view",
      "type": "function",
      "signature": "0x8da5cb5b"
    },
    {
      "inputs": [],
      "payable": false,
      "stateMutability": "nonpayable",
      "type": "constructor",
      "signature": "constructor"
    },
    {
      "anonymous": false,
      "inputs": [
        {
          "indexed": false,
          "name": "_splitterAddress",
          "type": "address"
        }
      ],
      "name": "ContractDeployed",
      "type": "event",
      "signature": "0x8ffcdc15a283d706d38281f500270d8b5a656918f555de0913d7455e3e6bc1bf"
    },
    {
      "anonymous": false,
      "inputs": [
        {
          "indexed": false,
          "name": "_aliceAddress",
          "type": "address"
        },
        {
          "indexed": true,
          "name": "_bobAddress",
          "type": "address"
        },
        {
          "indexed": true,
          "name": "_carolAddress",
          "type": "address"
        },
        {
          "indexed": false,
          "name": "_totalSent",
          "type": "uint256"
        },
        {
          "indexed": false,
          "name": "_amountSent",
          "type": "uint256"
        }
      ],
      "name": "FundsSplit",
      "type": "event",
      "signature": "0x142a131a7333a066e68d16eed9c86f07589af5c386b987c86d687627896823e4"
    },
    {
      "anonymous": false,
      "inputs": [
        {
          "indexed": false,
          "name": "_amountWithdrawn",
          "type": "uint256"
        },
        {
          "indexed": false,
          "name": "_reciever",
          "type": "address"
        }
      ],
      "name": "FundsWithdrawn",
      "type": "event",
      "signature": "0x6141b54b56b8a52a8c6f5cd2a857f6117b18ffbf4d46bd3106f300a839cbf5ea"
    },
    {
      "constant": false,
      "inputs": [
        {
          "name": "_bobAddress",
          "type": "address"
        },
        {
          "name": "_carolAddress",
          "type": "address"
        }
      ],
      "name": "splitEther",
      "outputs": [],
      "payable": true,
      "stateMutability": "payable",
      "type": "function",
      "signature": "0x69b08d7d"
    },
    {
      "constant": false,
      "inputs": [
        {
          "name": "amount",
          "type": "uint256"
        }
      ],
      "name": "withdrawEther",
      "outputs": [],
      "payable": false,
      "stateMutability": "nonpayable",
      "type": "function",
      "signature": "0x3bed33ce"
    }
  ],
  "bytecode": "0x608060405234801561001057600080fd5b50336000806101000a81548173ffffffffffffffffffffffffffffffffffffffff021916908373ffffffffffffffffffffffffffffffffffffffff1602179055507f8ffcdc15a283d706d38281f500270d8b5a656918f555de0913d7455e3e6bc1bf30604051808273ffffffffffffffffffffffffffffffffffffffff1673ffffffffffffffffffffffffffffffffffffffff16815260200191505060405180910390a1610882806100c36000396000f3fe608060405260043610610062576000357c0100000000000000000000000000000000000000000000000000000000900463ffffffff16806327e235e3146100675780633bed33ce146100cc57806369b08d7d146101075780638da5cb5b1461016b575b600080fd5b34801561007357600080fd5b506100b66004803603602081101561008a57600080fd5b81019080803573ffffffffffffffffffffffffffffffffffffffff1690602001909291905050506101c2565b6040518082815260200191505060405180910390f35b3480156100d857600080fd5b50610105600480360360208110156100ef57600080fd5b81019080803590602001909291905050506101da565b005b6101696004803603604081101561011d57600080fd5b81019080803573ffffffffffffffffffffffffffffffffffffffff169060200190929190803573ffffffffffffffffffffffffffffffffffffffff1690602001909291905050506103d1565b005b34801561017757600080fd5b506101806107fc565b604051808273ffffffffffffffffffffffffffffffffffffffff1673ffffffffffffffffffffffffffffffffffffffff16815260200191505060405180910390f35b60016020528060005260406000206000915090505481565b6000600160003373ffffffffffffffffffffffffffffffffffffffff1673ffffffffffffffffffffffffffffffffffffffff16815260200190815260200160002054905080821115151561022d57600080fd5b610240828261082190919063ffffffff16565b600160003373ffffffffffffffffffffffffffffffffffffffff1673ffffffffffffffffffffffffffffffffffffffff1681526020019081526020016000208190555060003373ffffffffffffffffffffffffffffffffffffffff168360405180600001905060006040518083038185875af1925050503d80600081146102e3576040519150601f19603f3d011682016040523d82523d6000602084013e6102e8565b606091505b50509050801515610361576040517f08c379a000000000000000000000000000000000000000000000000000000000815260040180806020018281038252600b8152602001807f53656e64204661696c656400000000000000000000000000000000000000000081525060200191505060405180910390fd5b7f6141b54b56b8a52a8c6f5cd2a857f6117b18ffbf4d46bd3106f300a839cbf5ea8333604051808381526020018273ffffffffffffffffffffffffffffffffffffffff1673ffffffffffffffffffffffffffffffffffffffff1681526020019250505060405180910390a1505050565b600073ffffffffffffffffffffffffffffffffffffffff168273ffffffffffffffffffffffffffffffffffffffff1614151515610476576040517f08c379a00000000000000000000000000000000000000000000000000000000081526004018080602001828103825260208152602001807f4572726f722c20746865207a65726f206164647265737320776173207573656481525060200191505060405180910390fd5b600073ffffffffffffffffffffffffffffffffffffffff168173ffffffffffffffffffffffffffffffffffffffff161415151561051b576040517f08c379a00000000000000000000000000000000000000000000000000000000081526004018080602001828103825260208152602001807f4572726f722c20746865207a65726f206164647265737320776173207573656481525060200191505060405180910390fd5b600060023481151561052957fe5b06141515610609576105a460018060008060009054906101000a900473ffffffffffffffffffffffffffffffffffffffff1673ffffffffffffffffffffffffffffffffffffffff1673ffffffffffffffffffffffffffffffffffffffff1681526020019081526020016000205461083a90919063ffffffff16565b600160008060009054906101000a900473ffffffffffffffffffffffffffffffffffffffff1673ffffffffffffffffffffffffffffffffffffffff1673ffffffffffffffffffffffffffffffffffffffff168152602001908152602001600020819055505b61066760023481151561061857fe5b04600160008573ffffffffffffffffffffffffffffffffffffffff1673ffffffffffffffffffffffffffffffffffffffff1681526020019081526020016000205461083a90919063ffffffff16565b600160008473ffffffffffffffffffffffffffffffffffffffff1673ffffffffffffffffffffffffffffffffffffffff168152602001908152602001600020819055506107086002348115156106b957fe5b04600160008473ffffffffffffffffffffffffffffffffffffffff1673ffffffffffffffffffffffffffffffffffffffff1681526020019081526020016000205461083a90919063ffffffff16565b600160008373ffffffffffffffffffffffffffffffffffffffff1673ffffffffffffffffffffffffffffffffffffffff168152602001908152602001600020819055508073ffffffffffffffffffffffffffffffffffffffff168273ffffffffffffffffffffffffffffffffffffffff167f142a131a7333a066e68d16eed9c86f07589af5c386b987c86d687627896823e433346002348115156107a857fe5b04604051808473ffffffffffffffffffffffffffffffffffffffff1673ffffffffffffffffffffffffffffffffffffffff168152602001838152602001828152602001935050505060405180910390a35050565b6000809054906101000a900473ffffffffffffffffffffffffffffffffffffffff1681565b600082821115151561082f57fe5b818303905092915050565b6000818301905082811015151561084d57fe5b8090509291505056fea165627a7a72305820aa9b3b6208d3020be5e4e895b1df5a27c9199da6d27ca3f2a9b0c72db077a73b0029",
  "source": "pragma solidity >=0.4.22 <0.9.0;\n\nimport './SafeMath.sol';\n\n//Updated\ncontract Splitter {\n    \n    // 1)  there are 3 people: Alice, Bob and Carol.\n    // 2)  we can see the balance of the Splitter contract on the Web page.\n    // 3)  whenever Alice sends ether to the contract for it to be split, half of it goes to Bob and the other half to Carol.\n    // 4)  we can see the balances of Alice, Bob and Carol on the Web page.\n    // 5)  Alice can use the Web page to split her ether.\n    \n    //Owner represents the original deployer of the contract\n    address public owner;\n\n    //mapping declaration\n    mapping (address => uint) public balances;\n    \n    //SafeMath\n    using SafeMath for uint;\n    \n    \n    //event declarations\n    event ContractDeployed(address _splitterAddress);\n    event FundsSplit(address _aliceAddress, address indexed _bobAddress, address indexed _carolAddress, uint _totalSent, uint _amountSent);\n    event FundsWithdrawn(uint _amountWithdrawn, address _reciever);\n    \n    //This constructor will set their addresses upon contract creation only\n    constructor() public {\n        owner = msg.sender;\n        emit ContractDeployed(address(this));\n    }\n    \n    //Only Alice is allowed to split her ether\n    //Below is the function to split ether from alice to carol and bob\n    function splitEther(address _bobAddress, address _carolAddress) public payable {\n\n        \n        require(_bobAddress != address(0), \"Error, the zero address was used\");\n        require(_carolAddress != address(0), \"Error, the zero address was used\");\n\n        //If an odd amount is entered the owner gets the extra wei. This ensures when msg.value is divided by 2 nothing is lost\n        if (msg.value % 2 != 0) {\n            balances[owner] = balances[owner].add(1);\n        } \n\n        balances[_bobAddress] =  balances[_bobAddress].add(msg.value / 2);\n        balances[_carolAddress] = balances[_carolAddress].add(msg.value / 2);\n\n        emit FundsSplit(msg.sender, _bobAddress, _carolAddress, msg.value, msg.value/2);\n    }\n    \n    function withdrawEther(uint amount) public {\n        uint balance = balances[msg.sender];\n        require(amount <= balance);\n        balances[msg.sender] = balance.sub(amount);\n        (bool success,) = msg.sender.call.value(amount)(\"\");\n        require(success, \"Send Failed\");\n        emit FundsWithdrawn(amount, msg.sender);\n    }\n    \n}\n",
  "sourcePath": "/home/vagrant/DAPPS/my_project/contracts/Splitter.sol",
  "compiler": {
    "name": "solc",
    "version": "0.5.0+commit.1d4f565a.Emscripten.clang"
  },
  "schemaVersion": "3.0.3",
  "updatedAt": "2021-04-09T18:33:45.658Z",
  "devdoc": {
    "methods": {}
  },
  "userdoc": {
    "methods": {}
  }
}