{
  "contractName": "Splitter",
  "abi": [
    {
      "constant": true,
      "inputs": [
        {
          "name": "",
          "type": "address"
        }
      ],
      "name": "balances",
      "outputs": [
        {
          "name": "",
          "type": "uint256"
        }
      ],
      "payable": false,
      "stateMutability": "view",
      "type": "function",
      "signature": "0x27e235e3"
    },
    {
      "constant": true,
      "inputs": [],
      "name": "aliceAddress",
      "outputs": [
        {
          "name": "",
          "type": "address"
        }
      ],
      "payable": false,
      "stateMutability": "view",
      "type": "function",
      "signature": "0x6d54f071"
    },
    {
      "constant": true,
      "inputs": [],
      "name": "bobAddress",
      "outputs": [
        {
          "name": "",
          "type": "address"
        }
      ],
      "payable": false,
      "stateMutability": "view",
      "type": "function",
      "signature": "0xcd922de2"
    },
    {
      "constant": true,
      "inputs": [],
      "name": "carolAddress",
      "outputs": [
        {
          "name": "",
          "type": "address"
        }
      ],
      "payable": false,
      "stateMutability": "view",
      "type": "function",
      "signature": "0xe69336a0"
    },
    {
      "inputs": [
        {
          "name": "_aliceAddress",
          "type": "address"
        },
        {
          "name": "_bobAddress",
          "type": "address"
        },
        {
          "name": "_carolAddress",
          "type": "address"
        }
      ],
      "payable": false,
      "stateMutability": "nonpayable",
      "type": "constructor",
      "signature": "constructor"
    },
    {
      "payable": true,
      "stateMutability": "payable",
      "type": "fallback"
    },
    {
      "anonymous": false,
      "inputs": [
        {
          "indexed": false,
          "name": "_splitterAddress",
          "type": "address"
        }
      ],
      "name": "ContractDeployed",
      "type": "event",
      "signature": "0x8ffcdc15a283d706d38281f500270d8b5a656918f555de0913d7455e3e6bc1bf"
    },
    {
      "anonymous": false,
      "inputs": [
        {
          "indexed": false,
          "name": "_totalSent",
          "type": "uint256"
        },
        {
          "indexed": false,
          "name": "_splitAmount",
          "type": "uint256"
        }
      ],
      "name": "FundsSplit",
      "type": "event",
      "signature": "0x72fcedce77a50a45fa697722308a9b8910b9e87d199ccc9f52320ad13b5bf8a1"
    },
    {
      "anonymous": false,
      "inputs": [
        {
          "indexed": false,
          "name": "_totalSent",
          "type": "uint256"
        },
        {
          "indexed": false,
          "name": "_address",
          "type": "address"
        }
      ],
      "name": "FundsWithdrawn",
      "type": "event",
      "signature": "0x6141b54b56b8a52a8c6f5cd2a857f6117b18ffbf4d46bd3106f300a839cbf5ea"
    },
    {
      "constant": true,
      "inputs": [
        {
          "name": "_user",
          "type": "address"
        }
      ],
      "name": "getIndividalBalance",
      "outputs": [
        {
          "name": "",
          "type": "uint256"
        }
      ],
      "payable": false,
      "stateMutability": "view",
      "type": "function",
      "signature": "0x5c73b287"
    },
    {
      "constant": false,
      "inputs": [],
      "name": "splitEther",
      "outputs": [],
      "payable": true,
      "stateMutability": "payable",
      "type": "function",
      "signature": "0x502b31d2"
    },
    {
      "constant": false,
      "inputs": [
        {
          "name": "amount",
          "type": "uint256"
        }
      ],
      "name": "withdrawEther",
      "outputs": [],
      "payable": false,
      "stateMutability": "nonpayable",
      "type": "function",
      "signature": "0x3bed33ce"
    }
  ],
  "bytecode": "0x608060405234801561001057600080fd5b506040516060806109ad8339810180604052606081101561003057600080fd5b81019080805190602001909291908051906020019092919080519060200190929190505050336000806101000a81548173ffffffffffffffffffffffffffffffffffffffff021916908373ffffffffffffffffffffffffffffffffffffffff16021790555082600160006101000a81548173ffffffffffffffffffffffffffffffffffffffff021916908373ffffffffffffffffffffffffffffffffffffffff16021790555081600260006101000a81548173ffffffffffffffffffffffffffffffffffffffff021916908373ffffffffffffffffffffffffffffffffffffffff16021790555080600360006101000a81548173ffffffffffffffffffffffffffffffffffffffff021916908373ffffffffffffffffffffffffffffffffffffffff1602179055507f8ffcdc15a283d706d38281f500270d8b5a656918f555de0913d7455e3e6bc1bf30604051808273ffffffffffffffffffffffffffffffffffffffff1673ffffffffffffffffffffffffffffffffffffffff16815260200191505060405180910390a15050506107e0806101cd6000396000f3fe608060405260043610610083576000357c0100000000000000000000000000000000000000000000000000000000900463ffffffff16806327e235e3146100f35780633bed33ce14610158578063502b31d2146101935780635c73b2871461019d5780636d54f07114610202578063cd922de214610259578063e69336a0146102b0575b34600460008060009054906101000a900473ffffffffffffffffffffffffffffffffffffffff1673ffffffffffffffffffffffffffffffffffffffff1673ffffffffffffffffffffffffffffffffffffffff16815260200190815260200160002060008282540192505081905550005b3480156100ff57600080fd5b506101426004803603602081101561011657600080fd5b81019080803573ffffffffffffffffffffffffffffffffffffffff169060200190929190505050610307565b6040518082815260200191505060405180910390f35b34801561016457600080fd5b506101916004803603602081101561017b57600080fd5b810190808035906020019092919050505061031f565b005b61019b61046f565b005b3480156101a957600080fd5b506101ec600480360360208110156101c057600080fd5b81019080803573ffffffffffffffffffffffffffffffffffffffff169060200190929190505050610721565b6040518082815260200191505060405180910390f35b34801561020e57600080fd5b50610217610742565b604051808273ffffffffffffffffffffffffffffffffffffffff1673ffffffffffffffffffffffffffffffffffffffff16815260200191505060405180910390f35b34801561026557600080fd5b5061026e610768565b604051808273ffffffffffffffffffffffffffffffffffffffff1673ffffffffffffffffffffffffffffffffffffffff16815260200191505060405180910390f35b3480156102bc57600080fd5b506102c561078e565b604051808273ffffffffffffffffffffffffffffffffffffffff1673ffffffffffffffffffffffffffffffffffffffff16815260200191505060405180910390f35b60046020528060005260406000206000915090505481565b600460003373ffffffffffffffffffffffffffffffffffffffff1673ffffffffffffffffffffffffffffffffffffffff16815260200190815260200160002054811115151561036d57600080fd5b80600460003373ffffffffffffffffffffffffffffffffffffffff1673ffffffffffffffffffffffffffffffffffffffff168152602001908152602001600020600082825403925050819055503373ffffffffffffffffffffffffffffffffffffffff166108fc829081150290604051600060405180830381858888f19350505050158015610400573d6000803e3d6000fd5b507f6141b54b56b8a52a8c6f5cd2a857f6117b18ffbf4d46bd3106f300a839cbf5ea8133604051808381526020018273ffffffffffffffffffffffffffffffffffffffff1673ffffffffffffffffffffffffffffffffffffffff1681526020019250505060405180910390a150565b600160009054906101000a900473ffffffffffffffffffffffffffffffffffffffff1673ffffffffffffffffffffffffffffffffffffffff163373ffffffffffffffffffffffffffffffffffffffff16141515610534576040517f08c379a00000000000000000000000000000000000000000000000000000000081526004018080602001828103825260128152602001807f596f7520617265206e6f7420416c69636521000000000000000000000000000081525060200191505060405180910390fd5b600060023481151561054257fe5b061415156105de576040517f08c379a00000000000000000000000000000000000000000000000000000000081526004018080602001828103825260388152602001807f5468697320636f6e7472616374207265717569726573206576656e20616d6f7581526020017f6e7473206f6620657468657220746f2062652073706c6974000000000000000081525060400191505060405180910390fd5b6002348115156105ea57fe5b0460046000600260009054906101000a900473ffffffffffffffffffffffffffffffffffffffff1673ffffffffffffffffffffffffffffffffffffffff1673ffffffffffffffffffffffffffffffffffffffff1681526020019081526020016000206000828254019250508190555060023481151561066557fe5b0460046000600360009054906101000a900473ffffffffffffffffffffffffffffffffffffffff1673ffffffffffffffffffffffffffffffffffffffff1673ffffffffffffffffffffffffffffffffffffffff168152602001908152602001600020600082825401925050819055507f72fcedce77a50a45fa697722308a9b8910b9e87d199ccc9f52320ad13b5bf8a13460023481151561070257fe5b04604051808381526020018281526020019250505060405180910390a1565b60008173ffffffffffffffffffffffffffffffffffffffff16319050919050565b600160009054906101000a900473ffffffffffffffffffffffffffffffffffffffff1681565b600260009054906101000a900473ffffffffffffffffffffffffffffffffffffffff1681565b600360009054906101000a900473ffffffffffffffffffffffffffffffffffffffff168156fea165627a7a72305820de8e3bd7ba3ab4b02e4c82a6d55309b4d66853a1d50d605581b13afb28e23f9e0029",
  "source": "pragma solidity >=0.4.22 <0.9.0;\n\ncontract Splitter {\n    \n    \n    \n    // 1)  there are 3 people: Alice, Bob and Carol.\n    // 2)  we can see the balance of the Splitter contract on the Web page.\n    // 3)  whenever Alice sends ether to the contract for it to be split, half of it goes to Bob and the other half to Carol.\n    // 4)  we can see the balances of Alice, Bob and Carol on the Web page.\n    // 5)  Alice can use the Web page to split her ether.\n    \n    //Owner represents the original deployer of the contract\n    address payable owner;\n    address public aliceAddress;\n    address payable public bobAddress;\n    address payable public carolAddress;\n\n    //mapping declaration\n    mapping (address => uint) public balances;\n    \n    \n    //event declarations\n    event ContractDeployed(address _splitterAddress);\n    event FundsSplit(uint _totalSent, uint _splitAmount);\n    event FundsWithdrawn(uint _totalSent, address _address);\n    \n    //This constructor will set their addresses upon contract creation only\n    constructor(address payable _aliceAddress, address payable _bobAddress, address payable _carolAddress) public{\n        owner = msg.sender;\n        aliceAddress = _aliceAddress;\n        bobAddress = _bobAddress;\n        carolAddress = _carolAddress;\n        emit ContractDeployed(address(this));\n    }\n    \n    \n\n    function getIndividalBalance(address _user) public view returns(uint) {\n        return address(_user).balance;\n    }\n    \n    //Only Alice is allowed to split her ether\n    //Below is the function to split ether from alice to carol and bob\n    function splitEther() public payable {\n\n        require(msg.sender == aliceAddress, \"You are not Alice!\");\n        require(msg.value % 2 == 0, \"This contract requires even amounts of ether to be split\");\n\n        balances[bobAddress] += (msg.value / 2);\n        balances[carolAddress] += (msg.value / 2);\n\n        emit FundsSplit(msg.value, msg.value/2);\n    }\n    \n    function withdrawEther(uint amount) public {\n        \n        require(amount <= balances[msg.sender]);\n        balances[msg.sender] -= amount;\n        msg.sender.transfer(amount);\n        emit FundsWithdrawn(amount, msg.sender);\n        \n        \n    }\n    \n    //The owner (original deployer) is entitled to any extra funds recieved by the callback\n    \n    function () external payable {\n        balances[owner] += msg.value;\n    }\n}\n",
  "sourcePath": "/home/vagrant/DAPPS/my_project/contracts/Splitter.sol",
  "compiler": {
    "name": "solc",
    "version": "0.5.0+commit.1d4f565a.Emscripten.clang"
  },
  "schemaVersion": "3.0.3",
  "updatedAt": "2021-03-09T00:33:56.646Z",
  "devdoc": {
    "methods": {}
  },
  "userdoc": {
    "methods": {}
  }
}