{
  "contractName": "Splitter",
  "abi": [
    {
      "constant": true,
      "inputs": [
        {
          "name": "",
          "type": "address"
        }
      ],
      "name": "balances",
      "outputs": [
        {
          "name": "",
          "type": "uint256"
        }
      ],
      "payable": false,
      "stateMutability": "view",
      "type": "function",
      "signature": "0x27e235e3"
    },
    {
      "inputs": [],
      "payable": false,
      "stateMutability": "nonpayable",
      "type": "constructor",
      "signature": "constructor"
    },
    {
      "payable": true,
      "stateMutability": "payable",
      "type": "fallback"
    },
    {
      "anonymous": false,
      "inputs": [
        {
          "indexed": false,
          "name": "_splitterAddress",
          "type": "address"
        }
      ],
      "name": "ContractDeployed",
      "type": "event",
      "signature": "0x8ffcdc15a283d706d38281f500270d8b5a656918f555de0913d7455e3e6bc1bf"
    },
    {
      "anonymous": false,
      "inputs": [
        {
          "indexed": false,
          "name": "_totalSent",
          "type": "uint256"
        },
        {
          "indexed": false,
          "name": "_splitAmount",
          "type": "uint256"
        }
      ],
      "name": "FundsSplit",
      "type": "event",
      "signature": "0x72fcedce77a50a45fa697722308a9b8910b9e87d199ccc9f52320ad13b5bf8a1"
    },
    {
      "anonymous": false,
      "inputs": [
        {
          "indexed": false,
          "name": "_totalSent",
          "type": "uint256"
        },
        {
          "indexed": false,
          "name": "_address",
          "type": "address"
        }
      ],
      "name": "FundsWithdrawn",
      "type": "event",
      "signature": "0x6141b54b56b8a52a8c6f5cd2a857f6117b18ffbf4d46bd3106f300a839cbf5ea"
    },
    {
      "constant": false,
      "inputs": [
        {
          "name": "_bobAddress",
          "type": "address"
        },
        {
          "name": "_carolAddress",
          "type": "address"
        }
      ],
      "name": "splitEther",
      "outputs": [],
      "payable": true,
      "stateMutability": "payable",
      "type": "function",
      "signature": "0x69b08d7d"
    },
    {
      "constant": false,
      "inputs": [
        {
          "name": "amount",
          "type": "uint256"
        }
      ],
      "name": "withdrawEther",
      "outputs": [],
      "payable": false,
      "stateMutability": "nonpayable",
      "type": "function",
      "signature": "0x3bed33ce"
    }
  ],
  "bytecode": "0x608060405234801561001057600080fd5b50336000806101000a81548173ffffffffffffffffffffffffffffffffffffffff021916908373ffffffffffffffffffffffffffffffffffffffff1602179055507f8ffcdc15a283d706d38281f500270d8b5a656918f555de0913d7455e3e6bc1bf30604051808273ffffffffffffffffffffffffffffffffffffffff1673ffffffffffffffffffffffffffffffffffffffff16815260200191505060405180910390a161065c806100c36000396000f3fe608060405260043610610057576000357c0100000000000000000000000000000000000000000000000000000000900463ffffffff16806327e235e3146101275780633bed33ce1461018c57806369b08d7d146101c7575b6100c1600160008060009054906101000a900473ffffffffffffffffffffffffffffffffffffffff1673ffffffffffffffffffffffffffffffffffffffff1673ffffffffffffffffffffffffffffffffffffffff168152602001908152602001600020543461022b565b600160008060009054906101000a900473ffffffffffffffffffffffffffffffffffffffff1673ffffffffffffffffffffffffffffffffffffffff1673ffffffffffffffffffffffffffffffffffffffff16815260200190815260200160002081905550005b34801561013357600080fd5b506101766004803603602081101561014a57600080fd5b81019080803573ffffffffffffffffffffffffffffffffffffffff169060200190929190505050610247565b6040518082815260200191505060405180910390f35b34801561019857600080fd5b506101c5600480360360208110156101af57600080fd5b810190808035906020019092919050505061025f565b005b610229600480360360408110156101dd57600080fd5b81019080803573ffffffffffffffffffffffffffffffffffffffff169060200190929190803573ffffffffffffffffffffffffffffffffffffffff1690602001909291905050506103ee565b005b6000818301905082811015151561023e57fe5b80905092915050565b60016020528060005260406000206000915090505481565b600160003373ffffffffffffffffffffffffffffffffffffffff1673ffffffffffffffffffffffffffffffffffffffff1681526020019081526020016000205481111515156102ad57600080fd5b6102f6600160003373ffffffffffffffffffffffffffffffffffffffff1673ffffffffffffffffffffffffffffffffffffffff1681526020019081526020016000205482610617565b600160003373ffffffffffffffffffffffffffffffffffffffff1673ffffffffffffffffffffffffffffffffffffffff168152602001908152602001600020819055503373ffffffffffffffffffffffffffffffffffffffff166108fc829081150290604051600060405180830381858888f1935050505015801561037f573d6000803e3d6000fd5b507f6141b54b56b8a52a8c6f5cd2a857f6117b18ffbf4d46bd3106f300a839cbf5ea8133604051808381526020018273ffffffffffffffffffffffffffffffffffffffff1673ffffffffffffffffffffffffffffffffffffffff1681526020019250505060405180910390a150565b60006002348115156103fc57fe5b06141515610498576040517f08c379a00000000000000000000000000000000000000000000000000000000081526004018080602001828103825260388152602001807f5468697320636f6e7472616374207265717569726573206576656e20616d6f7581526020017f6e7473206f6620657468657220746f2062652073706c6974000000000000000081525060400191505060405180910390fd5b6104ed600160008473ffffffffffffffffffffffffffffffffffffffff1673ffffffffffffffffffffffffffffffffffffffff168152602001908152602001600020546002348115156104e757fe5b0461022b565b600160008473ffffffffffffffffffffffffffffffffffffffff1673ffffffffffffffffffffffffffffffffffffffff16815260200190815260200160002081905550610585600160008373ffffffffffffffffffffffffffffffffffffffff1673ffffffffffffffffffffffffffffffffffffffff1681526020019081526020016000205460023481151561057f57fe5b0461022b565b600160008373ffffffffffffffffffffffffffffffffffffffff1673ffffffffffffffffffffffffffffffffffffffff168152602001908152602001600020819055507f72fcedce77a50a45fa697722308a9b8910b9e87d199ccc9f52320ad13b5bf8a1346002348115156105f657fe5b04604051808381526020018281526020019250505060405180910390a15050565b600082821115151561062557fe5b81830390509291505056fea165627a7a72305820893e4d4604a962497869516f927fad389c9f93ef740a8a8f0e5070d847d4df7b0029",
  "source": "pragma solidity >=0.4.22 <0.9.0;\n\nimport './SafeMath.sol';\n\ncontract Splitter {\n    \n    // 1)  there are 3 people: Alice, Bob and Carol.\n    // 2)  we can see the balance of the Splitter contract on the Web page.\n    // 3)  whenever Alice sends ether to the contract for it to be split, half of it goes to Bob and the other half to Carol.\n    // 4)  we can see the balances of Alice, Bob and Carol on the Web page.\n    // 5)  Alice can use the Web page to split her ether.\n    \n    //Owner represents the original deployer of the contract\n    address owner;\n\n    //mapping declaration\n    mapping (address => uint) public balances;\n    \n    \n    //event declarations\n    event ContractDeployed(address _splitterAddress);\n    event FundsSplit(uint _totalSent, uint _splitAmount);\n    event FundsWithdrawn(uint _totalSent, address _address);\n    \n    //This constructor will set their addresses upon contract creation only\n    constructor() public {\n        owner = msg.sender;\n        emit ContractDeployed(address(this));\n    }\n    \n    //Only Alice is allowed to split her ether\n    //Below is the function to split ether from alice to carol and bob\n    function splitEther(address _bobAddress, address _carolAddress) public payable {\n\n        //Removed requirement for carol, now anyone can submit to have ether split\n        require(msg.value % 2 == 0, \"This contract requires even amounts of ether to be split\");\n        \n        balances[_bobAddress] = SafeMath.add(balances[_bobAddress], msg.value/2);\n        balances[_carolAddress] = SafeMath.add(balances[_carolAddress], msg.value/2);\n\n        emit FundsSplit(msg.value, msg.value/2);\n    }\n    \n    function withdrawEther(uint amount) public {\n        \n        require(amount <= balances[msg.sender]);\n        balances[msg.sender] = SafeMath.sub(balances[msg.sender], amount);\n        msg.sender.transfer(amount);\n        emit FundsWithdrawn(amount, msg.sender);\n        \n        \n    }\n    \n    //The owner (original deployer) is entitled to any extra funds recieved by the callback\n    \n    function () external payable {\n        balances[owner] = SafeMath.add(balances[owner], msg.value);\n    }\n}\n",
  "sourcePath": "/home/vagrant/DAPPS/my_project/contracts/Splitter.sol",
  "compiler": {
    "name": "solc",
    "version": "0.5.0+commit.1d4f565a.Emscripten.clang"
  },
  "schemaVersion": "3.0.3",
  "updatedAt": "2021-03-30T00:55:24.063Z",
  "devdoc": {
    "methods": {}
  },
  "userdoc": {
    "methods": {}
  }
}